:020000040800F2
:10000000000002206D6D0008B56D0008B56D000898
:10001000B56D0008B56D0008B56D00080000000062
:1000200000000000000000000000000085670008DC
:10003000B56D000800000000BD690008276A0008CF
:10004000B56D0008B56D0008B56D0008B56D000808
:10005000B56D0008B56D0008B56D0008B56D0008F8
:10006000B56D0008B56D0008B56D0008B56D0008E8
:10007000B56D0008B56D0008B56D0008B56D0008D8
:10008000B56D0008B56D0008B56D0008B56D0008C8
:10009000B56D0008B56D0008B56D0008B56D0008B8
:1000A000B56D0008B56D0008B56D0008B56D0008A8
:1000B000B56D0008B56D0008B56D0008B56D000898
:1000C000B56D0008B56D0008B56D0008B56D000888
:1000D000B56D000805220008B56D0008B56D000873
:1000E000B56D0008B56D0008B56D0008B56D000868
:1000F000B56D0008B56D0008B56D0008B56D000858
:10010000B56D0008B56D0008B56D0008B56D000847
:10011000B56D0008B56D0008B56D0008B56D000837
:10012000B56D0008B56D0008B56D0008B56D000827
:10013000B56D0008B56D0008B56D0008B56D000817
:10014000B56D0008B56D0008B56D0008B56D000807
:10015000B56D0008B56D0008B56D0008B56D0008F7
:10016000B56D0008B56D0008B56D0008B56D0008E7
:10017000B56D0008B56D0008B56D0008B56D0008D7
:08018000B56D0008B56D000823
:1001900010B5054C237833B9044B13B10448AFF3C1
:1001A00000800123237010BD6404002000000000C3
:1001B0002C71000808B5034B1BB103490348AFF38A
:1001C000008008BD00000000680400202C710008B9
:1001D000154B002B08BF134B9D46A3F5803A002119
:1001E0008B460F461348144A121A06F019FE0F4B9D
:1001F000002B00D098470E4B002B00D098470020D2
:10020000002104000D000D48002802D00C4806F023
:10021000CFFE06F0E1FD2000290002F0A1F806F073
:10022000CBFD00BF0000080000000000000000003F
:10023000000000006404002044320120B16F000877
:10024000BD6F000880B400AF164B1B68154A43F021
:1002500001031360134B00229A60124B1B68114A72
:1002600023F0A85323F4102313600E4B0E4A5A6058
:100270000C4B0E4AC3F884200A4B0D4AC3F8882061
:10028000084B1B68074A23F480231360054B0022A8
:10029000DA60044B0022C3F88C2000BFBD465DF835
:1002A000047B7047003802401030002400300020EA
:1002B0000030002480B483B000AF0346FB71064BCE
:1002C00000221A70044AFB79137000BF0C37BD4638
:1002D0005DF8047B704700BF0238024080B582B0F1
:1002E00000AF00233B600023FB710023BB71312072
:1002F00000F0A2FD0346BB713B6801333B603B68E5
:10030000B3F5A04F02D0BB79002BF0D0312000F024
:1003100093FD0346002B02D00123FB7101E0002373
:10032000FB71FB7918460837BD4680BD80B485B0A7
:1003300000AF0346FB710023FB600A4B1B68FB60A8
:10034000FB6823F0F803FB60FB79DB00FA681343DA
:10035000FB60044AFB68136000BF1437BD465DF8BC
:10036000047B70470038024080B483B000AF03467E
:10037000FB71044AFB79136000BF0C37BD465DF882
:10038000047B70470000474280B483B000AF03464F
:10039000FB710D4B00221A700B4B00221A70FB7977
:1003A000012B02D0042B04D007E0074B01221A7066
:1003B00003E0054B05221A7000BF00BF0C37BD4695
:1003C0005DF8047B704700BF7038024080B483B092
:1003D00000AF0346FB71044AFB79136000BF0C3782
:1003E000BD465DF8047B7047800E474280B485B0FF
:1003F00000AFF860B9607A603B607B689A01BB68C7
:100400001A433B685B08013B1B041A43FB681A4311
:10041000BB691B06044913434B6000BF1437BD463C
:100420005DF8047B704700BF0038024080B483B0A1
:1004300000AF0346FB71044AFB79136000BF0C3721
:10044000BD465DF8047B70476000474280B483B0CE
:1004500000AF786039607B689A013B681B070549EB
:100460001343C1F8843000BF0C37BD465DF8047BF0
:10047000704700BF0038024080B483B000AF03462D
:10048000FB71044AFB79136000BF0C37BD465DF871
:10049000047B70476800474280B485B000AFF860C5
:1004A000B9607A60FB689A01BB681B061A437B68D7
:1004B0001B0705491343C1F8883000BF1437BD46F8
:1004C0005DF8047B704700BF0038024080B483B001
:1004D00000AF0346FB71044AFB79136000BF0C3781
:1004E000BD465DF8047B70477000474280B483B01E
:1004F00000AF0346FB71044AFB79136000BF0C3761
:10050000BD465DF8047B70474C00474280B485B01F
:1005100000AF786039600023FB600B4B9B68FB6089
:10052000FB6823F0EC63FB607A683B681343FA686E
:100530001343FB60044AFB68936000BF1437BD4659
:100540005DF8047B704700BF0038024080B485B07E
:1005500000AF786039600023FB600B4B9B68FB6049
:10056000FB6823F07843FB607A683B681343FA68C2
:100570001343FB60044AFB68936000BF1437BD4619
:100580005DF8047B704700BF0038024080B485B03E
:1005900000AF78600023FB60094B9B68FB60FB6841
:1005A00023F00303FB60FA687B681343FB60044A93
:1005B000FB68936000BF1437BD465DF8047B70474D
:1005C0000038024080B400AF054B9B68DBB203F0FB
:1005D0000C03DBB21846BD465DF8047B704700BFD4
:1005E0000038024080B485B000AF78600023FB6023
:1005F000094B9B68FB60FB6823F0F003FB60FA6823
:100600007B681343FB60044AFB68936000BF1437A8
:10061000BD465DF8047B70470038024080B485B069
:1006200000AF78600023FB60094B9B68FB60FB68B0
:1006300023F4E053FB60FA687B681343FB60044AD1
:10064000FB68936000BF1437BD465DF8047B7047BC
:100650000038024080B485B000AF78600023FB60B2
:100660000A4B9B68FB60FB6823F46043FB607B687C
:10067000DB00FA681343FB60044AFB68936000BF29
:100680001437BD465DF8047B704700BF0038024058
:1006900080B489B000AF78600023BB6100237B6128
:1006A0000023FB6102233B610023FB600223BB604C
:1006B000474B9B6803F00C03BB61BB69042B07D05D
:1006C000082B09D0002B3DD17B68424A1A603DE0DF
:1006D0007B68414A1A6039E03D4B5B689B0D03F033
:1006E0000103FB603A4B5B6803F03F03BB60FB68B0
:1006F000002B0CD0384ABB68B2FBF3F3344A526883
:100700009209C2F3080202FB03F3FB610BE0314ADA
:10071000BB68B2FBF3F32E4A52689209C2F3080297
:1007200002FB03F3FB612A4B5B681B0C03F0030322
:1007300001335B003B61FA693B69B2FBF3F27B6812
:100740001A6003E07B68234A1A6000BF204B9B6855
:1007500003F0F003BB61BB691B09BB611F4ABB69A6
:1007600013441B78DBB27B617B681A687B69DA40D3
:100770007B685A60164B9B6803F4E053BB61BB690E
:100780009B0ABB61154ABB6913441B78DBB27B61D2
:100790007B685A687B69DA407B689A600C4B9B687F
:1007A00003F46043BB61BB695B0BBB610B4ABB6974
:1007B00013441B78DBB27B617B685A687B69DA4043
:1007C0007B68DA6000BF2437BD465DF8047B704764
:1007D000003802400024F40000127A0004000020D7
:1007E00080B485B000AF78600023FB607B6803F4C1
:1007F0004073B3F5407F11D10F4B9B68FB60FB68E2
:1008000023F4F813FB607B6823F0704323F44073F8
:10081000FA681343FB60084AFB689360064B1A6F43
:100820007B68C3F30B03044913430B6700BF143702
:10083000BD465DF8047B70470038024080B483B049
:1008400000AF0346FB71044AFB79136000BF0C370D
:10085000BD465DF8047B70473C0E474280B483B0D0
:1008600000AF0346FB71044AFB79136000BF0C37ED
:10087000BD465DF8047B7047400E474280B483B0AC
:1008800000AF7860044A7B68136000BF0C37BD4638
:100890005DF8047B704700BF5C01474280B485B0BF
:1008A00000AF78600023FB600A4BD3F88C30FB600C
:1008B000FB6823F44013FB60FA687B681343FB601A
:1008C000044AFB68C2F88C3000BF1437BD465DF89F
:1008D000047B70470038024080B485B000AF786078
:1008E0000023FB600A4BD3F88C30FB60FB6823F4D9
:1008F0004003FB60FA687B681343FB60044AFB68B3
:10090000C2F88C3000BF1437BD465DF8047B7047D9
:100910000038024080B485B000AF78600023FB60EF
:100920000B4BD3F88C30FB60FB6823F01F03FB609C
:100930007B68013BFA681343FB60054AFB68C2F819
:100940008C3000BF1437BD465DF8047B704700BF94
:100950000038024080B485B000AF78600023FB60AF
:100960000B4BD3F88C30FB60FB6823F4F853FB602F
:100970007B68013B1B02FA681343FB60044AFB6877
:10098000C2F88C3000BF1437BD465DF8047B704759
:100990000038024080B485B000AF78600023FB606F
:1009A0000A4BD3F88C30FB60FB6823F44033FB60C8
:1009B000FA687B681343FB60044AFB68C2F88C301A
:1009C00000BF1437BD465DF8047B70470038024015
:1009D00080B483B000AF7860044A7B68136000BFC6
:1009E0000C37BD465DF8047B704700BFE0114742FD
:1009F00080B483B000AF78600B46FB70FB78002BAF
:100A000006D00A4B1A6B09497B6813430B6306E057
:100A1000064B1A6B7B68DB43044913400B6300BF32
:100A20000C37BD465DF8047B704700BF00380240BC
:100A300080B483B000AF78600B46FB70FB78002B6E
:100A400006D00A4B5A6B09497B6813434B6306E097
:100A5000064B5A6B7B68DB43044913404B6300BF72
:100A60000C37BD465DF8047B704700BF003802407C
:100A700080B483B000AF78600B46FB70FB78002B2E
:100A800006D00A4B9A6B09497B6813438B6306E0D7
:100A9000064B9A6B7B68DB43044913408B6300BFB2
:100AA0000C37BD465DF8047B704700BF003802403C
:100AB00080B483B000AF78600B46FB70FB78002BEE
:100AC00006D00A4B1A6C09497B6813430B6406E095
:100AD000064B1A6C7B68DB43044913400B6400BF70
:100AE0000C37BD465DF8047B704700BF00380240FC
:100AF00080B483B000AF78600B46FB70FB78002BAE
:100B000006D00A4B5A6C09497B6813434B6406E0D4
:100B1000064B5A6C7B68DB43044913404B6400BFAF
:100B20000C37BD465DF8047B704700BF00380240BB
:100B300080B483B000AF78600B46FB70FB78002B6D
:100B400006D00A4B1A6909497B6813430B6106E01A
:100B5000064B1A697B68DB43044913400B6100BFF5
:100B60000C37BD465DF8047B704700BF003802407B
:100B700080B483B000AF78600B46FB70FB78002B2D
:100B800006D00A4B5A6909497B6813434B6106E05A
:100B9000064B5A697B68DB43044913404B6100BF35
:100BA0000C37BD465DF8047B704700BF003802403B
:100BB00080B483B000AF78600B46FB70FB78002BED
:100BC00006D00A4B9A6909497B6813438B6106E09A
:100BD000064B9A697B68DB43044913408B6100BF75
:100BE0000C37BD465DF8047B704700BF00380240FB
:100BF00080B483B000AF78600B46FB70FB78002BAD
:100C000006D00A4B1A6A09497B6813430B6206E057
:100C1000064B1A6A7B68DB43044913400B6200BF32
:100C20000C37BD465DF8047B704700BF00380240BA
:100C300080B483B000AF78600B46FB70FB78002B6C
:100C400006D00A4B5A6A09497B6813434B6206E097
:100C5000064B5A6A7B68DB43044913404B6200BF72
:100C60000C37BD465DF8047B704700BF003802407A
:100C700080B483B000AF78600B46FB70FB78002B2C
:100C800006D00A4B1A6D09497B6813430B6506E0D1
:100C9000064B1A6D7B68DB43044913400B6500BFAC
:100CA0000C37BD465DF8047B704700BF003802403A
:100CB00080B483B000AF78600B46FB70FB78002BEC
:100CC00006D00A4B5A6D09497B6813434B6506E011
:100CD000064B5A6D7B68DB43044913404B6500BFEC
:100CE0000C37BD465DF8047B704700BF00380240FA
:100CF00080B483B000AF78600B46FB70FB78002BAC
:100D000006D00A4B9A6D09497B6813438B6506E050
:100D1000064B9A6D7B68DB43044913408B6500BF2B
:100D20000C37BD465DF8047B704700BF00380240B9
:100D300080B483B000AF78600B46FB70FB78002B6B
:100D400006D00A4B1A6E09497B6813430B6606E00E
:100D5000064B1A6E7B68DB43044913400B6600BFE9
:100D60000C37BD465DF8047B704700BF0038024079
:100D700080B483B000AF78600B46FB70FB78002B2B
:100D800006D00A4B5A6E09497B6813434B6606E04E
:100D9000064B5A6E7B68DB43044913404B6600BF29
:100DA0000C37BD465DF8047B704700BF0038024039
:100DB00080B483B000AF0346FB71FB79012B06D1F1
:100DC000094B1B6F084A43F00803136705E0064B05
:100DD0001B6F054A23F00803136700BF0C37BD469D
:100DE0005DF8047B704700BF0038024080B483B0D8
:100DF00000AF03460A46FB711346BB71BB79002B5B
:100E000008D00C4B1B78DAB20A49FB791343DBB2EA
:100E10000B7009E0074B1B78DAB2FB79DB43DBB2DE
:100E200004491340DBB20B7000BF0C37BD465DF8C0
:100E3000047B70470D38024080B487B000AF034692
:100E4000FB710023FB6000237B610023FB74FB79B3
:100E50005B09DBB2FB60FB68012B03D1124B1B6803
:100E60007B6109E0FB68022B03D10F4B1B6F7B6199
:100E700002E00D4B5B6F7B61FB7903F01F03FB60AE
:100E80007A69FB6822FA03F303F00103002B02D016
:100E90000123FB7401E00023FB74FB7C18461C3724
:100EA000BD465DF8047B70470038024080B400AF57
:100EB000054B5B6F044A43F08073536700BFBD4628
:100EC0005DF8047B704700BF0038024080B485B0F5
:100ED00000AF0346FB710023FB73094BDA68FB7913
:100EE0001340002B02D00123FB7301E00023FB73AE
:100EF000FB7B18461437BD465DF8047B704700BF86
:100F00000038024080B483B000AF0346FB71044A4E
:100F1000FB79137000BF0C37BD465DF8047B70474A
:100F20000E38024080B582B000AF78607B684B4AD3
:100F3000934208D101210120FFF7FAFD0021012091
:100F4000FFF7F6FD86E07B68454A934208D1012110
:100F50000220FFF7EDFD00210220FFF7E9FD79E017
:100F60007B68404A934208D101210420FFF7E0FD4D
:100F700000210420FFF7DCFD6CE07B683A4A9342D5
:100F800008D101210820FFF7D3FD00210820FFF739
:100F9000CFFD5FE07B68354A934208D101211020E4
:100FA000FFF7C6FD00211020FFF7C2FD52E07B686D
:100FB0002F4A934208D101212020FFF7B9FD0021DB
:100FC0002020FFF7B5FD45E07B682A4A934208D10F
:100FD00001214020FFF7ACFD00214020FFF7A8FDD4
:100FE00038E07B68244A934208D101218020FFF732
:100FF0009FFD00218020FFF79BFD2BE07B681F4AAF
:1010000093420AD101214FF48070FFF791FD002136
:101010004FF48070FFF78CFD1CE07B68184A934208
:101020000AD101214FF40070FFF782FD00214FF437
:101030000070FFF77DFD0DE07B68124A934209D1F5
:1010400001214FF48060FFF773FD00214FF48060B1
:10105000FFF76EFD00BF0837BD4680BD00000240AF
:101060000004024000080240000C02400010024050
:101070000014024000180240001C02400020024000
:10108000002402400028024080B487B000AF78609E
:10109000396000237B6100233B610023FB60002358
:1010A0007B6176E001227B6902FA03F33B613B68D6
:1010B0001B683A691340FB60FA683B699A4265D144
:1010C0007B681A687B695B00032101FA03F3DB4349
:1010D0001A407B681A607B681A683B681B7919465E
:1010E0007B695B0001FA03F31A437B681A603B6873
:1010F0001B79012B03D03B681B79022B2ED17B6817
:101100009A687B695B00032101FA03F3DB431A4011
:101110007B689A607B689A683B685B7919467B6953
:101120005B0001FA03F31A437B689A607B685A6894
:101130007B699BB2194601238B40DB431A407B68D5
:101140005A607B685B683A68927911467A6992B214
:1011500001FA02F292B21A437B685A607B68DA683D
:101160007B699BB25B00032101FA03F3DB431A4066
:101170007B68DA607B68DA683B68DB7919467B69F3
:101180005B0001FA03F31A437B68DA607B69013381
:101190007B617B690F2B85D900BF1C37BD465DF88D
:1011A000047B704780B483B000AF78607B684FF6F3
:1011B000FF721A607B6800221A717B6800225A71E4
:1011C0007B6800229A717B680022DA7100BF0C37BD
:1011D000BD465DF8047B704780B485B000AF786091
:1011E0000B467B804FF48033FB607A88FB681343A7
:1011F000FB60FA687B68DA617A887B68DA61FA6892
:101200007B68DA617B68DB69FB607B68DB69FB60BC
:1012100000BF1437BD465DF8047B704780B485B0CD
:1012200000AF78600B467B800023FB737B681A69F4
:101230007B881340002B02D00123FB7301E00023C5
:10124000FB73FB7B18461437BD465DF8047B704783
:1012500080B483B000AF78607B681B699BB218468E
:101260000C37BD465DF8047B704780B485B000AF95
:1012700078600B467B800023FB737B685A697B8810
:101280001340002B02D00123FB7301E00023FB730A
:10129000FB7B18461437BD465DF8047B704780B46D
:1012A00083B000AF78607B685B699BB218460C37EF
:1012B000BD465DF8047B704780B483B000AF7860B2
:1012C0000B467B807B687A881A8300BF0C37BD464B
:1012D0005DF8047B704780B483B000AF78600B4644
:1012E0007B807B687A885A8300BF0C37BD465DF8E7
:1012F000047B704780B483B000AF78600B467B807E
:1013000013467B707B78002B03D07B687A881A8326
:1013100002E07B687A885A8300BF0C37BD465DF8CF
:10132000047B704780B483B000AF78600B467B804D
:101330007A887B685A6100BF0C37BD465DF8047B34
:10134000704780B483B000AF78600B467B807B68C9
:101350005A697B885A407B685A6100BF0C37BD468A
:101360005DF8047B704780B485B000AF78600B46B1
:101370007B8013467B700023FB600023BB607A7880
:101380007B8803F007039B0002FA03F3FB607B8872
:10139000DB089BB21A467B68083253F822207B8810
:1013A00003F007039B000F2101FA03F3DB43798865
:1013B000C90889B2084602EA03017B6800F1080205
:1013C00043F822107B88DB089BB21A467B68083200
:1013D00053F82230FA681343BB607B88DB089BB26A
:1013E0001A467B680832B96843F8221000BF1437E8
:1013F000BD465DF8047B704780B500AF01214FF416
:101400008040FFF715FC00214FF48040FFF710FCEF
:1014100000BF80BD80B483B000AF0346FB71044AB7
:10142000FB79136000BF0C37BD465DF8047B704745
:101430000038014080B483B000AF0346FB71044A1A
:10144000FB79136000BF0C37BD465DF8047B704725
:101450002000274280B485B000AF03460A46FB71E6
:101460001346BB710023FB60BB7903F003039B00B1
:101470000F2202FA03F3FB60164ABB799B08DBB22A
:10148000023352F82320FB68DB431248B9798908FC
:10149000C9B21A408B1C40F823200E4ABB799B0826
:1014A000DBB2023352F82320F979BB7903F003034E
:1014B0009B0001FA03F30748B9798908C9B21A43B6
:1014C0008B1C40F8232000BF1437BD465DF8047B19
:1014D000704700BF0038014080B483B000AF78602F
:1014E000044A7B68136000BF0C37BD465DF8047B7F
:1014F000704700BFDC00274280B483B000AF0346D2
:10150000FB71044AFB79136000BF0C37BD465DF8E0
:10151000047B70470004274280B483B000AF0023EF
:10152000FB71094B1B6A03F48073002B02D001236B
:10153000FB7101E00023FB71FB7918460C37BD46B7
:101540005DF8047B704700BF0038014080B582B071
:1015500000AF78607B683B4A934208D1012110209C
:10156000FFF766FB00211020FFF762FB65E07B6858
:10157000354A93420AD101214FF40030FFF738FB7E
:1015800000214FF40030FFF733FB56E07B682F4A11
:1015900093420AD101214FF48020FFF729FB00215B
:1015A0004FF48020FFF724FB47E07B68284A9342F2
:1015B0000AD101214FF40020FFF71AFB00214FF45C
:1015C0000020FFF715FB38E07B68224A93420AD1DE
:1015D00001214FF48010FFF70BFB00214FF4801026
:1015E000FFF706FB29E07B681B4A934208D10121E3
:1015F0002020FFF71DFB00212020FFF719FB1CE036
:101600007B68164A93420AD101214FF08040FFF7D0
:10161000EFFA00214FF08040FFF7EAFA0DE07B6817
:101620000F4A934209D101214FF00040FFF7E0FA41
:1016300000214FF00040FFF7DBFA00BF0837BD463E
:1016400080BD00BF00100140004400400048004041
:10165000004C004000500040001401400078004061
:10166000007C004080B58AB000AF7860396000230C
:101670007B6200233B620023FB610023BB617B682C
:101680001B8A9BB27B627B6A23F440537B623B687C
:10169000DB881A467B6A13437B627B6A9AB27B685B
:1016A0001A827B689B899BB27B627B6A23F4B0536E
:1016B00023F00C037B623B689A883B681B891343C9
:1016C0009AB23B685B8913439BB21A467B6A134309
:1016D0007B627B6A9AB27B689A817B689B8A9BB2A9
:1016E0007B627B6A23F440737B623B689B891A466A
:1016F0007B6A13437B627B6A9AB27B689A8207F1AA
:1017000008031846FEF7C4FF7B68304A934203D0B3
:101710007B682F4A934202D17B693B6201E03B69BF
:101720003B627B689B899BB21BB2002B0CDA3A6A46
:1017300013469B0013449A001A443B681B685B00E5
:10174000B2FBF3F3FB610BE03A6A13469B001344D0
:101750009A001A443B681B689B00B2FBF3F3FB61E1
:10176000FB691C4AA2FB03235B091B017B627B6AAA
:101770001B09642202FB03F3FA69D31ABB617B687D
:101780009B899BB21BB2002B0CDABB69DB003233A6
:10179000104AA2FB03235B0903F007037A6A134391
:1017A0007B620BE0BB691B0132330A4AA2FB0323B5
:1017B0005B0903F00F037A6A13437B627B6A9AB278
:1017C0007B681A8100BF2837BD4680BD00100140EC
:1017D000001401401F85EB5180B483B000AF7860E6
:1017E0007B684FF416521A607B6800229A807B68EF
:1017F0000022DA807B6800221A817B680C225A81E1
:101800007B6800229A8100BF0C37BD465DF8047BDF
:10181000704780B485B000AF786039600023FB600A
:101820007B681B8A9BB2FB60FB6823F47063FB60E0
:101830003B681A883B685B8813439AB23B689B8875
:1018400013439AB23B68DB8813439BB21A46FB688A
:101850001343FB60FB689AB27B681A8200BF14379F
:10186000BD465DF8047B704780B483B000AF7860FC
:101870007B6800221A807B6800225A807B680022E5
:101880009A807B680022DA8000BF0C37BD465DF885
:10189000047B704780B483B000AF78600B46FB7068
:1018A000FB78002B08D07B689B899BB243F40053E4
:1018B0009AB27B689A8107E07B689B899BB223F48C
:1018C00000539AB27B689A8100BF0C37BD465DF821
:1018D000047B704780B483B000AF78600B46FB7028
:1018E0007B681B8B9BB223F0FF039AB27B681A8341
:1018F0007B681B8B9AB2FB789BB213439AB27B68CE
:101900001A8300BF0C37BD465DF8047B704780B476
:1019100083B000AF78600B46FB70FB78002B0AD0D9
:101920007B689B899BB26FEA43436FEA53439AB249
:101930007B689A8107E07B689B899BB2C3F30E03A7
:101940009AB27B689A8100BF0C37BD465DF8047B74
:10195000704780B483B000AF78600B46FB70FB78B3
:10196000002B08D07B689B8A9BB243F400639AB239
:101970007B689A8207E07B689B8A9BB223F40063B2
:101980009AB27B689A8200BF0C37BD465DF8047B33
:10199000704780B483B000AF78600B467B807B8853
:1019A000C3F308039AB27B689A8000BF0C37BD4628
:1019B0005DF8047B704780B483B000AF78607B68CB
:1019C0009B889BB2C3F308039BB218460C37BD46F5
:1019D0005DF8047B704780B483B000AF78600B463D
:1019E000FB707B681B8A9BB223F00F039AB27B6863
:1019F0001A827B681B8A9AB2FB789BB213439AB215
:101A00007B681A8200BF0C37BD465DF8047B7047C7
:101A100080B483B000AF78600B46FB70FB78002B7E
:101A200008D07B689B899BB243F002039AB27B6823
:101A30009A8107E07B689B899BB223F002039AB2EC
:101A40007B689A8100BF0C37BD465DF8047B704708
:101A500080B483B000AF78600B467B807B689B8945
:101A60009BB223F400639AB27B689A817B689B895E
:101A70009AB27B8813439AB27B689A8100BF0C3775
:101A8000BD465DF8047B704780B483B000AF7860DA
:101A90000B467B807B681B8A9BB223F020039AB2A3
:101AA0007B681A827B681B8A9AB27B8813439AB23E
:101AB0007B681A8200BF0C37BD465DF8047B704717
:101AC00080B483B000AF78600B46FB70FB78002BCE
:101AD00008D07B681B8A9BB243F480439AB27B6830
:101AE0001A8207E07B681B8A9BB223F480439AB278
:101AF0007B681A8200BF0C37BD465DF8047B7047D7
:101B000080B483B000AF78607B689B899BB243F060
:101B100001039AB27B689A8100BF0C37BD465DF81D
:101B2000047B704780B483B000AF78600B46FB70D5
:101B3000FB78002B08D07B689B8A9BB243F008039C
:101B40009AB27B689A8207E07B689B8A9BB223F0FB
:101B500008039AB27B689A8200BF0C37BD465DF8D5
:101B6000047B704780B483B000AF78600B46FB7095
:101B70007B681B8B9BB2DBB29AB27B681A837B6853
:101B80001B8B9AB2FB789BB21B029BB213439AB297
:101B90007B681A8300BF0C37BD465DF8047B704735
:101BA00080B483B000AF78600B46FB70FB78002BED
:101BB00008D07B689B8A9BB243F020039AB27B6873
:101BC0009A8207E07B689B8A9BB223F020039AB23B
:101BD0007B689A8200BF0C37BD465DF8047B704776
:101BE00080B483B000AF78600B46FB70FB78002BAD
:101BF00008D07B689B8A9BB243F010039AB27B6843
:101C00009A8207E07B689B8A9BB223F010039AB20A
:101C10007B689A8200BF0C37BD465DF8047B704735
:101C200080B483B000AF78600B467B807B689B8A72
:101C30009BB223F004039AB27B689A827B689B8AEA
:101C40009AB27B8813439AB27B689A8200BF0C37A2
:101C5000BD465DF8047B704780B483B000AF786008
:101C60000B46FB70FB78002B08D07B689B8A9BB2ED
:101C700043F002039AB27B689A8207E07B689B8AF2
:101C80009BB223F002039AB27B689A8200BF0C37A2
:101C9000BD465DF8047B704780B483B000AF7860C8
:101CA0000B467B8013467B707B78002B08D07B68CB
:101CB0009B8A9AB27B8813439AB27B689A8209E026
:101CC0007B689B8A9AB27B88DB439BB213409AB2B3
:101CD0007B689A8200BF0C37BD465DF8047B704775
:101CE00080B487B000AF78600B467B8013467B7072
:101CF00000233B610023FB600023BB6000237B616A
:101D00007B687B617B88DBB25B09DBB23B617B88F4
:101D100003F01F03FB600122FB6802FA03F3BB60C0
:101D20003B69012B03D17B690C337B6109E03B6983
:101D3000022B03D17B6910337B6102E07B69143392
:101D40007B617B78002B06D07B6919687B69BA6858
:101D50000A431A6006E07B691968BB68DA437B694D
:101D60000A401A6000BF1C37BD465DF8047B70470F
:101D700080B485B000AF78600B467B800023FB7396
:101D80007B681B889AB27B8813409BB2002B02D0E1
:101D90000123FB7301E00023FB73FB7B1846143720
:101DA000BD465DF8047B704780B483B000AF7860B7
:101DB0000B467B807B88DB439AB27B681A8000BF2E
:101DC0000C37BD465DF8047B704780B487B000AF28
:101DD00078600B467B800023FB6000237B6100233F
:101DE000BB600023FB747B88DBB25B09DBB2BB60AA
:101DF0007B8803F01F037B6101227B6902FA03F3F6
:101E00007B61BB68012B07D17B689B899BB21A461B
:101E10007B6913407B6111E0BB68022B07D17B68B3
:101E20001B8A9BB21A467B6913407B6106E07B6884
:101E30009B8A9BB21A467B6913407B617B881B0A95
:101E40009BB2FB600122FB6802FA03F3FB607B6834
:101E50001B889BB21A46FB681340FB607B69002B12
:101E600005D0FB68002B02D00123FB7401E00023A6
:101E7000FB74FB7C18461C37BD465DF8047B70473D
:101E800080B485B000AF78600B467B800023FB8177
:101E90000023BB817B881B0AFB81FB89012202FA9C
:101EA00003F3BB81BB89DB439AB27B681A8000BF16
:101EB0001437BD465DF8047B704700BF80B483B023
:101EC00000AF7860064A7B6843F0BF6343F4003399
:101ED000D36000BF0C37BD465DF8047B704700BF80
:101EE00000ED00E080B485B000AF78600023FB73A4
:101EF0000023BB730F237B737B68DB78002B39D007
:101F0000274BDB68DB431B0ADBB203F00703FB73E1
:101F1000FB7BC3F10403BB737A7BFB7B42FA03F3C5
:101F20007B737B685B781A46BB7B02FA03F3FB7317
:101F30007B689A787B7B1340DAB2FB7B1343FB739D
:101F4000FB7B1B01FB73174A7B681B781344FA7BEE
:101F500083F800237B681B7803F01F0311497A681C
:101F600012785209D2B21046012202FA03F341F864
:101F700020300FE07B681B7803F01F0309497A6863
:101F800012785209D2B2104601229A4000F1200381
:101F900041F8232000BF1437BD465DF8047B70472D
:101FA00000ED00E000E100E080B483B000AF7860B5
:101FB00039603B6823F0604323F07F0304497A686B
:101FC00013438B6000BF0C37BD465DF8047B704740
:101FD00000ED00E080B483B000AF03460A46FB7119
:101FE0001346BB71BB79002B06D00A4B1A69FB79EB
:101FF000084913430B6106E0064B1A69FB79DB4382
:10200000044913400B6100BF0C37BD465DF8047BEB
:10201000704700BF00ED00E080B483B000AF78608F
:102020007B68042B06D1094B1B68084A43F0040364
:10203000136005E0054B1B68044A23F0040313609A
:1020400000BF0C37BD465DF8047B704710E000E030
:1020500080B400AF00BFBD465DF8047B704780B41C
:1020600000AF00BFBD465DF8047B704780B400AF91
:1020700000BFBD465DF8047B704780B400AF00BF71
:10208000BD465DF8047B704780B483B000AF7860D4
:1020900000BF0C37BD465DF8047B704780B582B049
:1020A00000AF01210120FEF7A3FC4FF4C0633B60A9
:1020B00002233B710023BB7102237B710123FB715F
:1020C0003B4619460848FEF7DFFF0722092106486C
:1020D000FFF749F907220A210348FFF744F900BF37
:1020E0000837BD4680BD00BF0000024080B584B007
:1020F00000AF01211020FEF7FBFC4FF416533B60AC
:102100000023BB800023FB8000233B810023BB8195
:102110000C237B813B4619460348FFF7A3FA00BF17
:102120001037BD4680BD00BF0010014080B582B0B1
:1021300000AF012240F225510948FFF7D1FD2523C8
:102140003B710F237B710F23BB710123FB713B1D7F
:102150001846FFF7C7FE00BF0837BD4680BD00BF69
:102160000010014080B582B000AF786010E07B685D
:102170005A1C7A601B789BB219460948FFF709FC84
:1021800000BF40210648FFF7F3FD0346002BF8D0BF
:102190007B681B78002BEAD100BF0837BD4680BDA5
:1021A0000010014080B582B000AF01210820FEF789
:1021B0001FFC4FF470433B6001233B710023BB7154
:1021C00000237B710023FB713B4619460348FEF751
:1021D0005BFF00BF0837BD4680BD00BF000C02405A
:1021E00080B500AFFFF75AFFFFF780FFFFF79EFFB4
:1021F00001210348FFF74EFBFFF7D4FF00BF80BD6E
:102200000010014080B500AF40F225511D48FFF796
:10221000DCFD0346002B32D01A48FFF7CCFB034607
:102220001A46194B1A804FF470411848FFF753F8BB
:10223000154B1B88412B05D14FF480511348FFF7F4
:1022400080F81CE0104B1B88422B05D14FF4005145
:102250000E48FFF776F812E00B4B1B88432B05D195
:102260004FF480410948FFF76CF808E0064B1B88E3
:10227000442B04D14FF400410448FFF762F800BF3B
:1022800080BD00BF00100140DC310120000C024085
:1022900080B582B000AF124B7B604FF47A7001F0D2
:1022A000DBFF4FF480510F48FFF74BF80E4B1B68D4
:1022B000002BF2D00C4B186800230A220B4900F0C7
:1022C000E2FE0346012BE8D0084B1B680133074AA6
:1022D00013607868FFF7D8FE0548FFF743FFDCE797
:1022E000E4700008000C0240D831012014000020E6
:1022F000F870000880B500AF4FF480411448FFF734
:1023000020F84FF4FA6001F0A7FF124B1B68002B76
:10231000F2D0104B186800230A220F4901F0CBF8C5
:102320000346012B0DD10C4B1B686E2B09D94FF4C2
:1023300000510748FFF705F840210848FFF729FB3F
:1023400004E04FF400410248FEF7FBFFD4E700BF72
:10235000000C0240D831012018000020001001407C
:1023600080B582B002AF002204210A2000F062FD95
:102370000246104B1A60FFF733FF4FF44070FFF72F
:102380009DFD002301930123009300234FF47A72F3
:1023900009490A4801F022FD00230193022300931A
:1023A00000234FF47A720649064801F017FD02F047
:1023B00061FAFEE7D8310120FC7000089122000884
:1023C00004710008F522000880B500AF164BD3F861
:1023D0008830154A43F47003C2F88830134B1B68E9
:1023E000124A43F001031360104B00229A600F4B16
:1023F0001B680E4A23F0847323F4803313600B4B65
:102400000B4A5A60094B1B68084A23F48023136067
:10241000064B0022DA6000F089F8034B4FF00062AF
:102420009A6000BF80BD00BF00ED00E000380240B0
:102430001030002480B487B000AF00233B6100233C
:102440007B610223FB600023BB6002237B60324B75
:102450009B6803F00C033B613B69042B07D0082BFE
:1024600009D0002B3DD12D4B2D4A1A603DE02B4B5E
:102470002C4A1A6039E0284B5B689B0D03F001037E
:10248000BB60254B5B6803F03F037B60BB68002BA0
:102490000CD0244A7B68B2FBF3F31F4A52689209BE
:1024A000C2F3080202FB03F37B610BE01C4A7B686A
:1024B000B2FBF3F3184A52689209C2F3080202FB16
:1024C00003F37B61144B5B681B0C03F003030133C4
:1024D0005B00FB607A69FB68B2FBF3F30F4A1360A1
:1024E00003E00E4B0E4A1A6000BF0B4B9B681B09A2
:1024F00003F00F030C4AD35CDBB23B61074B1A6855
:102500003B6922FA03F3054A136000BF1C37BD463E
:102510005DF8047B704700BF003802401C000020BB
:102520000024F40000127A002000002080B483B060
:1025300000AF00237B6000233B60364B1B68354AAD
:1025400043F480331360334B1B6803F400333B6068
:102550007B6801337B603B68002B03D17B68B3F55C
:10256000A04FF0D12B4B1B6803F40033002B02D09B
:1025700001233B6001E000233B603B68012B42D11B
:10258000244B1B6C234A43F080531364224B1B687B
:10259000214A43F4404313601E4B1E4A9B689360DC
:1025A0001C4B9B681B4A43F400439360194B9B6888
:1025B000184A43F4A0539360164B184A5A60154BBF
:1025C0001B68144A43F08073136000BF114B1B68F3
:1025D00003F00073002BF9D0114B40F205621A6032
:1025E0000C4B9B680B4A23F003039360094B9B68D9
:1025F000084A43F00203936000BF064B9B6803F058
:102600000C03082BF9D100BF0C37BD465DF8047BE5
:10261000704700BF00380240007000400854400777
:10262000003C024080B582B000AF1C2004F07AFA72
:1026300078607B68002B07D07B6800221A607B687B
:102640000433184600F0DAFA7B6818460837BD46AE
:1026500080BD80B58CB000AFF860B9607A603B6037
:10266000FB68BB6200237B627B6803F07F43002B27
:1026700009D04FF0500383F31188BFF36F8FBFF37E
:102680004F8FBB61FEE77B68002B09D14FF05003F1
:1026900083F31188BFF36F8FBFF34F8F7B61FEE72A
:1026A00002F0C8FF0346002B02D13B68002B01D18A
:1026B000012300E00023002B09D14FF0500383F3E6
:1026C0001188BFF36F8FBFF34F8F3B61FEE702F0BE
:1026D00035F9BB6A1B683B62B968F86800F083F99A
:1026E0003A6ABB681A437B6813407A689A420DD1F4
:1026F0003A6ABB681343FB62BB6A1A687B68DB43B8
:102700001A40BB6A1A6000233B6011E03B68002B53
:102710000BD0BB6A181D7B6843F0A0633A6819466A
:1027200002F0FEFB0023FB6202E0BB6A1B68FB6257
:1027300002F012F9F8613B68002B2CD0FB69002BEA
:1027400007D1174B4FF080521A60BFF34F8FBFF382
:102750006F8F03F087F8F862FB6A03F00073002BB9
:1027600015D104F0D5F8BB6A1B68FB62FA6A7B6876
:1027700013407A689A4206D1BB6A1A687B68DB43C9
:102780001A40BB6A1A6004F0F1F801237B62FB6A0D
:1027900023F07F43FB62FB6A18463037BD4680BD9D
:1027A00004ED00E080B590B000AFF860B9607A60E9
:1027B0003B60FB687B630023BB6300233B63FB68D8
:1027C000002B09D14FF0500383F31188BFF36F8FB3
:1027D000BFF34F8F3B62FEE7BB6803F07F43002BE4
:1027E00009D04FF0500383F31188BFF36F8FBFF30D
:1027F0004F8FFB61FEE7BB68002B09D14FF0500300
:1028000083F31188BFF36F8FBFF34F8FBB61FEE778
:1028100002F010FF0346002B02D1BB6C002B01D14C
:10282000012300E00023002B09D14FF0500383F374
:102830001188BFF36F8FBFF34F8F7B61FEE702F00C
:102840007DF87B6B1B68FB623A68B968F86A00F038
:102850009DF9B862BB6A002B0ED0FB6AFB630023B4
:10286000BB647B68002B26D07B6B1A68BB68DB439C
:102870001A407B6B1A601EE0BB6C002B02D1FB6A16
:10288000FB6318E07B68002B03D0BB6B43F08073C5
:10289000BB633B68002B03D0BB6B43F08063BB631F
:1028A0007B6B181DBA68BB6B1343BA6C194602F0F8
:1028B00037FB0023FB6302F04FF87862BB6C002B00
:1028C00031D07B6A002B07D1194B4FF080521A6030
:1028D000BFF34F8FBFF36F8F02F0C4FFF863FB6B42
:1028E00003F00073002B1AD104F012F87B6B1B6805
:1028F000FB633A68B968F86B00F048F90346002BAF
:1029000009D07B68002B06D07B6B1A68BB68DB4361
:102910001A407B6B1A6004F029F800233B63FB6BC1
:1029200023F07F43FB63FB6B18464037BD4680BDF9
:1029300004ED00E080B586B000AF786039607B6858
:102940007B617B68002B09D14FF0500383F3118822
:10295000BFF36F8FBFF34F8FFB60FEE73B6803F061
:102960007F43002B09D04FF0500383F31188BFF34E
:102970006F8FBFF34F8FBB60FEE703F0C9FF7B692A
:102980001B683B617B691A683B68DB431A407B69C3
:102990001A6003F0EBFF3B6918461837BD4680BD4F
:1029A00080B489B000AF78607B68FB61EFF311827F
:1029B0004FF0500383F31188BFF36F8FBFF34F8F36
:1029C000FA60BB60FB68BB61FB691B687B61BB692C
:1029D0003B613B6983F311887B6918462437BD4608
:1029E0005DF8047B704780B58EB000AF78603960C9
:1029F00000233B637B68BB620023FB627B68002B88
:102A000009D14FF0500383F31188BFF36F8FBFF3E9
:102A10004F8F3B61FEE73B6803F07F43002B09D0FB
:102A20004FF0500383F31188BFF36F8FBFF34F8FC5
:102A3000FB60FEE7BB6A04337B627B6A08333B6260
:102A400001F07CFF7B6ADB687B63BB6A1A683B68CA
:102A50001A43BB6A1A603CE07B6B5B68FB617B6B73
:102A60001B68BB610023FB62BB6903F07F437B6192
:102A7000BB6923F07F43BB617B6903F08063002B5C
:102A800008D1BB6A1A68BB691340002B0BD0012325
:102A9000FB6208E0BB6A1A68BB691340BA699A42D4
:102AA00001D10123FB62FB6A002B10D07B6903F08C
:102AB0008073002B03D03A6BBB6913433B63BB6A43
:102AC0001B6843F000731946786B02F0EFFAFB695C
:102AD0007B637A6B3B6A9A42BED1BB6A1A683B6BD6
:102AE000DB431A40BB6A1A6001F036FFBB6A1B6801
:102AF00018463837BD4680BD80B586B000AF7860D7
:102B00007B687B617B6904333B6101F017FF16E052
:102B10003B69DA683B6908339A4209D14FF05003A8
:102B200083F31188BFF36F8FBFF34F8FFB60FEE716
:102B30003B69DB684FF00071184602F0B7FA3B6959
:102B40001B68002BE4D1786904F038F801F004FF29
:102B500000BF1837BD4680BD80B582B000AF786039
:102B6000396039687868FFF73EFF00BF0837BD4617
:102B700080BD80B582B000AF786039603968786810
:102B8000FFF7D8FE00BF0837BD4680BD80B487B0D0
:102B900000AFF860B9607A6000237B617B68002B2E
:102BA00007D1FA68BB681340002B0AD001237B6170
:102BB00007E0FA68BB681340BA689A4201D1012362
:102BC0007B617B6918461C37BD465DF8047B704706
:102BD00080B485B000AF78607B68BB607B68002BF9
:102BE00002D10023FB6002E0BB689B69FB60FB68CD
:102BF00018461437BD465DF8047B704780B483B037
:102C000000AF78607B6803F108027B685A607B68DC
:102C10004FF0FF329A607B6803F108027B68DA604C
:102C20007B6803F108027B681A617B6800221A60E6
:102C300000BF0C37BD465DF8047B704780B483B09D
:102C400000AF78607B6800221A6100BF0C37BD4678
:102C50005DF8047B704780B485B000AF7860396060
:102C60007B685B68FB603B68FA685A60FB689A683F
:102C70003B689A60FB689B683A685A60FB683A68F0
:102C80009A603B687A681A617B681B685A1C7B688B
:102C90001A6000BF1437BD465DF8047B704780B4EE
:102CA00085B000AF786039603B681B68BB60BB686B
:102CB000B3F1FF3F03D17B681B69FB600CE07B68CD
:102CC0000833FB6002E0FB685B68FB60FB685B68E5
:102CD0001B68BA689A42F6D2FB685A683B685A6029
:102CE0003B685B683A689A603B68FA689A60FB6880
:102CF0003A685A603B687A681A617B681B685A1C9C
:102D00007B681A6000BF1437BD465DF8047B7047CE
:102D100080B485B000AF78607B681B69FB607B681E
:102D20005B687A6892689A607B689B687A68526888
:102D30005A60FB685B687A689A4203D17B689A683C
:102D4000FB685A607B6800221A61FB681B685A1E88
:102D5000FB681A60FB681B6818461437BD465DF8AF
:102D6000047B704780B584B000AF786039607B68C1
:102D7000FB60FB68002B09D14FF0500383F31188EF
:102D8000BFF36F8FBFF34F8FBB60FEE703F0C0FD53
:102D9000FB681A68FB68DB6BF968096C01FB03F3DD
:102DA0001A44FB685A60FB6800229A63FB681A6841
:102DB000FB689A60FB681A68FB68DB6B013BF9688B
:102DC000096C01FB03F31A44FB68DA60FB68FF221D
:102DD00083F84420FB68FF2283F845203B68002BE2
:102DE00014D1FB681B69002B1AD0FB6810331846FE
:102DF00002F0FAF80346002B12D00D4B4FF0805230
:102E00001A60BFF34F8FBFF36F8F09E0FB68103379
:102E10001846FFF7F3FEFB6824331846FFF7EEFE73
:102E200003F0A4FD012318461037BD4680BD00BF46
:102E300004ED00E080B58AB002AFF860B9601346D7
:102E4000FB71FB68002B09D14FF0500383F311880D
:102E5000BFF36F8FBFF34F8F3B61FEE7BB68002B63
:102E600002D10023FB6104E0FB68BA6802FB03F3B4
:102E7000FB61FB695033184603F054FEB861BB692F
:102E8000002B0BD0BB6950337B61FA79BB6900938F
:102E900013467A69B968F86800F005F8BB69184606
:102EA0002037BD4680BD80B584B000AFF860B96002
:102EB0007A60FB70BB68002B03D1BB69BA691A60EA
:102EC00002E0BB697A681A60BB69FA68DA63BB69B9
:102ED000BA681A640121B869FFF744FFBB69FA7840
:102EE00083F84C2000BF1037BD4680BD80B582B04E
:102EF00000AF78607B68002B0ED07B6800225A60A0
:102F00007B6800221A607B680022DA6000230022BE
:102F10000021786800F0B7F800BF0837BD4680BDD3
:102F200080B586B000AF0346FB7101237B610023AF
:102F30003B61FB791A4639697869FFF77BFFF860D6
:102F4000F868FFF7D3FFFB6818461837BD4680BD09
:102F500090B587B000AF78607B683B613B69002B20
:102F600009D14FF0500383F31188BFF36F8FBFF384
:102F70004F8FFB60FEE73B695C6802F04BFB03464A
:102F80009C4211D13B69DB685A1E3B69DA603B69A0
:102F9000DB68002B05D1002300220021386900F0F6
:102FA00072F801237B6101E000237B617B69184695
:102FB0001C37BD4690BD90B587B000AF78603960D2
:102FC0007B683B613B69002B09D14FF0500383F3D1
:102FD0001188BFF36F8FBFF34F8FFB60FEE73B6934
:102FE0005C6802F017FB03469C4207D13B69DB6833
:102FF0005A1C3B69DA6001237B610EE000233A68CA
:103000000021386900F057FA78617B69002B04D001
:103010003B69DB685A1C3B69DA607B6918461C37E0
:10302000BD4690BD80B586B000AF786039607B68E2
:10303000002B09D14FF0500383F31188BFF36F8F3A
:10304000BFF34F8F3B61FEE73A687B689A4209D92C
:103050004FF0500383F31188BFF36F8FBFF34F8F8F
:10306000FB60FEE7022200217868FFF7E3FE78614B
:103070007B69002B02D07B693A689A637B691846AA
:103080001837BD4680BD80B58EB000AFF860B9601E
:103090007A603B6000237B63FB683B633B6B002BE8
:1030A00009D14FF0500383F31188BFF36F8FBFF343
:1030B0004F8FBB62FEE7BB68002B03D13B6B1B6CE1
:1030C000002B01D1012300E00023002B09D14FF098
:1030D000500383F31188BFF36F8FBFF34F8F7B6271
:1030E000FEE73B68022B03D13B6BDB6B012B01D16D
:1030F000012300E00023002B09D14FF0500383F39C
:103100001188BFF36F8FBFF34F8F3B62FEE702F072
:1031100091FA0346002B02D17B68002B01D10123D9
:1031200000E00023002B09D14FF0500383F31188F6
:10313000BFF36F8FBFF34F8FFB61FEE703F0E8FB38
:103140003B6B9A6B3B6BDB6B9A4202D33B68022B67
:1031500029D13A68B968386B00F040FCF8623B6BE3
:103160005B6A002B10D03B6B2433184601F03CFF08
:103170000346002B13D0404B4FF080521A60BFF330
:103180004F8FBFF36F8F0AE0FB6A002B07D03A4BDB
:103190004FF080521A60BFF34F8FBFF36F8F03F071
:1031A000E5FB012363E07B68002B03D103F0DEFB2A
:1031B00000235CE07B6B002B06D107F1140318465B
:1031C00001F0DAFF01237B6303F0D0FB01F0B6FBD3
:1031D00003F09EFB3B6B93F844305BB2B3F1FF3FCF
:1031E00003D13B6B002283F844203B6B93F84530BE
:1031F0005BB2B3F1FF3F03D13B6B002283F8452064
:1032000003F0B4FB3A1D07F114031146184601F010
:10321000D7FF0346002B24D1386B00F0F8FC03469F
:10322000002B18D03B6B10337A681146184601F01A
:1032300053FE386B00F062FC01F08EFB0346002B5E
:103240007FF47CAF0C4B4FF080521A60BFF34F8F6E
:10325000BFF36F8F72E7386B00F050FC01F07CFB1E
:103260006CE7386B00F04AFC01F076FB002318464F
:103270003837BD4680BD00BF04ED00E080B58EB09C
:1032800000AFF860B9607A603B60FB683B633B6B02
:10329000002B09D14FF0500383F31188BFF36F8FD8
:1032A000BFF34F8F7B62FEE7BB68002B03D13B6B04
:1032B0001B6C002B01D1012300E00023002B09D15E
:1032C0004FF0500383F31188BFF36F8FBFF34F8F1D
:1032D0003B62FEE73B68022B03D13B6BDB6B012BB0
:1032E00001D1012300E00023002B09D14FF050034E
:1032F00083F31188BFF36F8FBFF34F8FFB61FEE73E
:1033000003F0CEFBEFF311824FF0500383F31188EB
:10331000BFF36F8FBFF34F8FBA617B61BB69FB62F5
:103320003B6B9A6B3B6BDB6B9A4202D33B68022B85
:103330002CD13B6B93F8453087F82B303A68B9684D
:10334000386B00F04BFB97F92B30B3F1FF3F12D1F4
:103350003B6B5B6A002B16D03B6B2433184601F0A5
:1033600043FE0346002B0ED07B68002B0BD07B68FE
:1033700001221A6007E097F82B300133DBB25AB212
:103380003B6B83F8452001237B6301E000237B63D3
:10339000FB6A3B613B6983F311887B6B18463837C6
:1033A000BD4680BD80B58EB000AF786039607B6867
:1033B0003B633B6B002B09D14FF0500383F3118823
:1033C000BFF36F8FBFF34F8F3B62FEE73B6B1B6C0E
:1033D000002B09D04FF0500383F31188BFF36F8F98
:1033E000BFF34F8FFB61FEE73B6B1B68002B03D1E4
:1033F0003B6B5B68002B01D1012300E00023002B15
:1034000009D14FF0500383F31188BFF36F8FBFF3DF
:103410004F8FBB61FEE703F043FBEFF311824FF0E8
:10342000500383F31188BFF36F8FBFF34F8F7A611F
:103430003B617B69FB623B6B9B6BBB623B6BDB6BFA
:10344000BA6A9A422BD23B6B93F8453087F8273003
:10345000BB6A5A1C3B6B9A6397F92730B3F1FF3F65
:1034600012D13B6B5B6A002B16D03B6B24331846A2
:1034700001F0BAFD0346002B0ED03B68002B0BD0A9
:103480003B6801221A6007E097F827300133DBB26E
:103490005AB23B6B83F8452001237B6301E0002394
:1034A0007B63FB6AFB60FB6883F311887B6B1846C8
:1034B0003837BD4680BD80B58EB000AFF860B960CA
:1034C0007A603B6000237B63FB683B633B6B002BB4
:1034D00009D14FF0500383F31188BFF36F8FBFF30F
:1034E0004F8F7B62FEE7BB68002B03D13B6B1B6CED
:1034F000002B01D1012300E00023002B09D14FF064
:10350000500383F31188BFF36F8FBFF34F8F3B627C
:10351000FEE702F08FF80346002B02D17B68002BF8
:1035200001D1012300E00023002B09D14FF050030B
:1035300083F31188BFF36F8FBFF34F8FFB61FEE7FB
:1035400003F0E6F93B6B9B6BFB62FB6A002B46D0FA
:103550003B6BDB68BB62B968386B00F0A9FA3B686B
:10356000002B21D1FB6A5A1E3B6B9A633B6B1B6895
:10357000002B04D102F08EF902463B6B5A603B6B84
:103580001B69002B27D03B6B1033184601F02CFD34
:103590000346002B1FD0504B4FF080521A60BFF3F0
:1035A0004F8FBFF36F8F16E03B6BBA6ADA603B6BED
:1035B0005B6A002B0FD03B6B2433184601F014FDDF
:1035C0000346002B07D0444B4FF080521A60BFF3E4
:1035D0004F8FBFF36F8F03F0C9F9012377E07B684A
:1035E000002B03D103F0C2F9002370E07B6B002BAA
:1035F00006D107F11403184601F0BEFD01237B63D9
:1036000003F0B4F901F09AF903F082F93B6B93F8F7
:1036100044305BB2B3F1FF3F03D13B6B002283F830
:1036200044203B6B93F845305BB2B3F1FF3F03D1CD
:103630003B6B002283F8452003F098F93A1D07F10F
:1036400014031146184601F0BBFD0346002B31D18F
:10365000386B00F0A5FA0346002B25D03B6B1B68A6
:10366000002B08D103F054F93B6B5B68184601F05E
:10367000FFFF03F07BF93B6B24337A681146184651
:1036800001F02AFC386B00F039FA01F065F90346C5
:10369000002B7FF455AF104B4FF080521A60BFF3F0
:1036A0004F8FBFF36F8F4BE7386B00F027FA01F0B5
:1036B00053F945E7386B00F021FA01F04DF9386B0A
:1036C00000F06EFA0346002B3FF43AAF0023184691
:1036D0003837BD4680BD00BF04ED00E080B58EB038
:1036E00000AFF860B9607A60FB683B633B6B002B0E
:1036F00009D14FF0500383F31188BFF36F8FBFF3ED
:103700004F8F3B62FEE7BB68002B03D13B6B1B6C0A
:10371000002B01D1012300E00023002B09D14FF041
:10372000500383F31188BFF36F8FBFF34F8FFB619B
:10373000FEE703F0B5F9EFF311824FF0500383F386
:103740001188BFF36F8FBFF34F8FBA617B61BB6985
:10375000FB623B6B9B6BBB62BB6A002B2FD03B6B4E
:1037600093F8443087F82730B968386B00F0A0F937
:10377000BB6A5A1E3B6B9A6397F92730B3F1FF3F40
:1037800012D13B6B1B69002B16D03B6B10331846D4
:1037900001F02AFC0346002B0ED07B68002B0BD0D7
:1037A0007B6801221A6007E097F827300133DBB20B
:1037B0005AB23B6B83F8442001237B6301E0002372
:1037C0007B63FB6A3B613B6983F311887B6B184623
:1037D0003837BD4680BD80B58CB000AF78603960A9
:1037E0007B68BB62BB6A002B09D14FF0500383F3A7
:1037F0001188BFF36F8FBFF34F8FFB61FEE73B680C
:10380000002B03D1BB6A1B6C002B01D1012300E00C
:103810000023002B09D14FF0500383F31188BFF32D
:103820006F8FBFF34F8FBB61FEE7BB6A1B6C002B32
:1038300009D14FF0500383F31188BFF36F8FBFF3AB
:103840004F8F7B61FEE703F02BF9EFF311824FF00E
:10385000500383F31188BFF36F8FBFF34F8F3A612B
:10386000FB603B697B62BB6A9B6B002B0CD0BB6A25
:10387000DB683B623968B86A00F01AF9BB6A3A6AD9
:10388000DA600123FB6201E00023FB627B6ABB601C
:10389000BB6883F31188FB6A18463037BD4680BD8C
:1038A00080B584B000AF78607B68002B09D14FF001
:1038B000500383F31188BFF36F8FBFF34F8FBB604B
:1038C000FEE703F025F87B689B6BFB6003F04EF886
:1038D000FB6818461037BD4680BD80B586B000AF86
:1038E00078607B687B617B69002B09D14FF05003C6
:1038F00083F31188BFF36F8FBFF34F8FFB60FEE739
:1039000003F006F87B69DA6B7B699B6BD31A3B612A
:1039100003F02CF83B6918461837BD4680BD80B4CB
:1039200085B000AF78607B68002B09D14FF0500361
:1039300083F31188BFF36F8FBFF34F8FBB60FEE738
:103940007B689B6BFB60FB6818461437BD465DF8CF
:10395000047B704780B584B000AF78607B68FB6003
:10396000FB68002B09D14FF0500383F31188BFF39C
:103970006F8FBFF34F8FBB60FEE7F86800F0D0F9A0
:10398000F86803F01BF900BF1037BD4680BD80B456
:1039900083B000AF78607B689B6C18460C37BD46DF
:1039A0005DF8047B704780B483B000AF7860396005
:1039B0007B683A689A6400BF0C37BD465DF8047BAB
:1039C000704780B483B000AF78607B6893F84C3068
:1039D00018460C37BD465DF8047B704780B586B04D
:1039E00000AFF860B9607A6000237B61FB689B6B75
:1039F0003B61FB681B6C002B0DD1FB681B68002B27
:103A00004DD1FB685B68184601F0A8FE7861FB6841
:103A100000225A6043E07B68002B19D1FB6898684C
:103A2000FB681B6C1A46B96803F006F9FB689A68D4
:103A3000FB681B6C1A44FB689A60FB689A68FB6819
:103A40005B689A422BD3FB681A68FB689A6026E091
:103A5000FB68D868FB681B6C1A46B96803F0ECF881
:103A6000FB68DA68FB681B6C5B421A44FB68DA602F
:103A7000FB68DA68FB681B689A4207D2FB685A68E1
:103A8000FB681B6C5B421A44FB68DA607B68022BA4
:103A900005D13B69002B02D03B69013B3B613B698F
:103AA0005A1CFB689A637B6918461837BD4680BD6F
:103AB00080B582B000AF786039607B681B6C002BEA
:103AC00018D07B68DA687B681B6C1A447B68DA6004
:103AD0007B68DA687B685B689A4203D37B681A6804
:103AE0007B68DA607B68D9687B681B6C1A4638682B
:103AF00003F0A2F800BF0837BD4680BD80B584B092
:103B000000AF786002F004FF7B6893F84530FB73E8
:103B100011E07B685B6A002B12D07B682433184667
:103B200001F062FA0346002B01D001F0A7FBFB7BFA
:103B3000013BDBB2FB7397F90F30002BE9DC00E0AF
:103B400000BF7B68FF2283F8452002F00FFF02F0E0
:103B5000DFFE7B6893F84430BB7311E07B681B6920
:103B6000002B12D07B681033184601F03DFA034653
:103B7000002B01D001F082FBBB7B013BDBB2BB73AE
:103B800097F90E30002BE9DC00E000BF7B68FF22D4
:103B900083F8442002F0EAFE00BF1037BD4680BD26
:103BA00080B584B000AF786002F0B2FE7B689B6B9A
:103BB000002B02D10123FB6001E00023FB6002F037
:103BC000D5FEFB6818461037BD4680BD80B485B071
:103BD00000AF78607B68002B09D14FF0500383F36E
:103BE0001188BFF36F8FBFF34F8FBB60FEE77B6819
:103BF0009B6B002B02D10123FB6001E00023FB60E3
:103C0000FB6818461437BD465DF8047B704780B5E5
:103C100084B000AF786002F07BFE7B689A6B7B68B3
:103C2000DB6B9A4202D10123FB6001E00023FB60C1
:103C300002F09CFEFB6818461037BD4680BD80B47C
:103C400085B000AF78607B68002B09D14FF050033E
:103C500083F31188BFF36F8FBFF34F8FBB60FEE715
:103C60007B689A6B7B68DB6B9A4202D10123FB6015
:103C700001E00023FB60FB6818461437BD465DF881
:103C8000047B704780B485B000AF78603960002352
:103C9000FB6014E00E4AFB6852F83330002B0BD166
:103CA0000B49FB683A6841F83320094AFB68DB009E
:103CB00013447A685A6005E0FB680133FB60FB68D7
:103CC000072BE7D900BF1437BD465DF8047B70476A
:103CD000E031012080B485B000AF78600023BB6084
:103CE0000023FB6010E00D4AFB68DB0013445B68B7
:103CF0007A689A4205D1094AFB6852F83330BB60B2
:103D000005E0FB680133FB60FB68072BEBD9BB6860
:103D100018461437BD465DF8047B7047E03101203A
:103D200080B485B000AF78600023FB6016E0104AD5
:103D3000FB68DB0013445B687A689A420BD10C4A3B
:103D4000FB68002142F83310094AFB68DB0013448A
:103D500000225A6005E0FB680133FB60FB68072B1B
:103D6000E5D900BF1437BD465DF8047B704700BF3E
:103D7000E031012080B586B000AFF860B9607A60AC
:103D8000FB687B6102F0C4FD7B6993F844305BB251
:103D9000B3F1FF3F03D17B69002283F844207B69A4
:103DA00093F845305BB2B3F1FF3F03D17B6900224A
:103DB00083F8452002F0DAFD7B699B6B002B06D16E
:103DC0007B6924337A68B968184601F0E3F87869AA
:103DD000FFF794FE00BF1837BD4680BD80B58CB09C
:103DE00004AFF860B9603B601346FB80FB889B0022
:103DF000184602F097FE78617B69002B0ED05820A0
:103E000002F090FEF861FB69002B03D0FB697A6930
:103E10001A6305E0786902F0D1FE01E00023FB613E
:103E2000FB69002B13D0FA8800230393FB690293EC
:103E3000FB6A0193BB6A00933B68B968F86800F0BD
:103E40000EF8F86900F091F80123BB6102E04FF031
:103E5000FF33BB61BB6918462037BD4680BD80B5C6
:103E600088B000AFF860B9607A603B603B6B186B5C
:103E70007B689B001A46A52102F0D2FF3B6B1A6BB0
:103E80007B6803F18043013B9B001344BB61BB692A
:103E900023F00703BB61BB6903F00703002B09D0C4
:103EA0004FF0500383F31188BFF36F8FBFF34F8F31
:103EB0007B61FEE70023FB6112E0BA68FB691344F3
:103EC00019783A6BFB69134434330A461A70BA689E
:103ED000FB6913441B78002B06D0FB690133FB619F
:103EE000FB69092BE9D900E000BF3B6B002283F896
:103EF0003D20BB6A042B01D90423BB623B6BBA6A29
:103F0000DA623B6BBA6A9A643B6B0022DA643B6B01
:103F100004331846FEF792FE3B6B18331846FEF743
:103F20008DFE3B6B3A6B1A61BB6AC3F105023B6BBA
:103F30009A613B6B3A6B5A623B6B00221A653B6B92
:103F4000002283F854203A68F968B86902F0C8FB87
:103F500002463B6B1A60FB6A002B02D0FB6A3A6B8D
:103F60001A6000BF2037BD4680BD80B582B000AF6B
:103F7000786002F0CDFC2D4B1B6801332B4A136097
:103F80002B4B1B68002B09D1294A7B681360274BF8
:103F90001B68012B10D101F0BFF90DE0254B1B6808
:103FA000002B09D1224B1B68DA6A7B68DB6A9A42D4
:103FB00002D81F4A7B6813601F4B1B6801331E4ADF
:103FC00013601D4B1A687B681A647B68DB6A0122E8
:103FD0009A401A4B1B681343184A13607B68DA6ACD
:103FE00013469B0013449B00154A1A447B68043314
:103FF00019461046FEF72FFE02F0B8FC0D4B1B6869
:10400000002B0ED00A4B1B68DA6A7B68DB6A9A4287
:1040100007D20C4B4FF080521A60BFF34F8FBFF3A3
:104020006F8F00BF0837BD4680BD00BF5805002018
:104030008004002064050020740500206005002035
:104040008404002004ED00E080B584B000AF786007
:1040500002F05EFC7B68002B02D1384B1B6800E04D
:104060007B68FB60FB6804331846FEF751FE03468D
:10407000002B15D1FB68DA6A314913469B001344C3
:104080009B000B441B68002B0AD1FB68DB6A0122F2
:1040900002FA03F3DA432B4B1B681340294A1360DF
:1040A000FB689B6A002B04D0FB6818331846FEF7A8
:1040B0002FFE254B1B680133234A13601F4B1B68DF
:1040C000FA689A420BD1FB68043319461F48FEF781
:1040D000C2FD1F4B1B6801331D4A136009E01D4BD5
:1040E0001B68013B1B4A1360F86801F05DFA01F0A0
:1040F0006BFA02F03BFC184B1B68002B1AD00F4BDD
:104100001B68FA689A4215D1144B1B68002B09D022
:104110004FF0500383F31188BFF36F8FBFF34F8FBE
:10412000BB60FEE70E4B4FF080521A60BFF34F8F1B
:10413000BFF36F8F00BF1037BD4680BD80040020E5
:104140008404002060050020740500202C05002058
:10415000400500205805002064050020800500204F
:1041600004ED00E080B58AB000AF786039600023CC
:104170007B627B68002B09D14FF0500383F31188D9
:10418000BFF36F8FBFF34F8F7B61FEE73B68002B60
:1041900009D14FF0500383F31188BFF36F8FBFF342
:1041A0004F8F3B61FEE7294B1B68002B09D04FF076
:1041B000500383F31188BFF36F8FBFF34F8FFB6002
:1041C000FEE700F0BBFB224B1B683B627B681B6871
:1041D0003A681344FB617B681B683A6A9A420BD2C7
:1041E0007B681B68FA699A4211D2FA693B6A9A4263
:1041F0000DD901237B620AE07B681B68FA699A4249
:1042000003D3FA693B6A9A4201D901237B627B6836
:10421000FA691A607B6A002B06D0FA693B6AD31AE6
:104220000021184601F008FE00F096FBB861BB695A
:10423000002B07D1074B4FF080521A60BFF34F8F0E
:10424000BFF36F8F00BF2837BD4680BD80050020BB
:104250005C05002004ED00E080B584B000AF78601C
:104260000023FB607B68002B16D0134B1B68002BD0
:1042700009D04FF0500383F31188BFF36F8FBFF362
:104280004F8FBB60FEE700F059FB0021786801F01A
:10429000D3FD00F061FBF860FB68002B07D1074BF2
:1042A0004FF080521A60BFF34F8FBFF36F8F00BF84
:1042B0001037BD4680BD00BF8005002004ED00E042
:1042C00080B586B000AF78607B683B613B69002BAE
:1042D00009D14FF0500383F31188BFF36F8FBFF301
:1042E0004F8FBB60FEE71D4B1B683A699A4202D1B3
:1042F0000023FB752DE002F00BFB3B695B69FB6063
:1043000002F034FB164B1B68FA689A4204D0154B36
:104310001B68FA689A4202D10223FB7519E0FB6818
:10432000114A934209D13B699B6A002B02D10323B6
:10433000FB750EE00223FB750BE0FB680B4A934212
:1043400002D0FB68002B02D10423FB7501E001239E
:10435000FB75FB7D18461837BD4680BD80040020E4
:104360001005002014050020440500202C05002025
:1043700080B584B000AF786002F0CAFA7B68002B89
:1043800002D1074B1B6800E07B68FB60FB68DB6ABF
:10439000BB6002F0EBFABB6818461037BD4680BD23
:1043A0008004002080B588B000AF786002F078FB10
:1043B000EFF311824FF0500383F31188BFF36F8F37
:1043C000BFF34F8F3A61FB603B69FB617B68002B59
:1043D00002D1094B1B6800E07B68BB61BB69DB6AEB
:1043E0007B61FB69BB60BB6883F311887B691846FE
:1043F0002037BD4680BD00BF8004002080B588B056
:1044000000AF786039600023FB613B68042B09D959
:104410004FF0500383F31188BFF36F8FBFF34F8FBB
:10442000FB60FEE73B68042B01D904233B6002F0EC
:104430006FFA7B68002B02D1434B1B6800E07B685E
:10444000BB61BB699B6C7B617A693B689A4274D0A3
:104450003A687B699A420DD93B4B1B68BA699A420C
:104460000FD0394B1B68DB6A3A689A4209D30123A3
:10447000FB6106E0344B1B68BA699A4201D1012303
:10448000FB61BB69DB6A3B61BB699A6CBB69DB6A38
:104490009A4202D1BB693A68DA62BB693A689A64A7
:1044A000BB699B69002B04DB3B68C3F10502BB6958
:1044B0009A61BB6959693A6913469B0013449B0092
:1044C000224A1344994201D1012300E00023002B2A
:1044D00028D0BB6904331846FEF71AFC0346002BAC
:1044E00009D101223B6902FA03F3DA43184B1B6836
:1044F0001340174A1360BB69DB6A01229A40144BD0
:104500001B681343124A1360BB69DA6A13469B00A7
:1045100013449B000D4A1A44BB69043319461046E4
:10452000FEF799FBFB69002B07D00A4B4FF0805236
:104530001A60BFF34F8FBFF36F8F02F017FA00BFFF
:104540002037BD4680BD00BF8004002084040020C9
:104550006005002004ED00E080B584B000AF786015
:1045600002F0D6F97B68002B02D1374B1B6800E0C4
:104570007B68FB60FB6804331846FEF7C9FB034603
:10458000002B15D1FB68DA6A304913469B001344AF
:104590009B000B441B68002B0AD1FB68DB6A0122DD
:1045A00002FA03F3DA432A4B1B681340284A1360CC
:1045B000FB689B6A002B04D0FB6818331846FEF793
:1045C000A7FBFB68043319462248FEF744FB02F0C0
:1045D000CDF9214B1B68002B05D002F099F900F0B2
:1045E000F3FF02F0C3F9184B1B68FA689A4226D110
:1045F000194B1B68002B16D0184B1B68002B09D0D9
:104600004FF0500383F31188BFF36F8FBFF34F8FC9
:10461000BB60FEE7124B4FF080521A60BFF34F8F22
:10462000BFF36F8F0BE00B4B1A680E4B1B689A425F
:1046300003D1054B00221A6001E000F0CDFB00BF62
:104640001037BD4680BD00BF8004002084040020D8
:10465000600500204405002064050020800500203E
:1046600004ED00E05805002080B487B000AF78600A
:1046700000237B617B683B617B68002B09D14FF095
:10468000500383F31188BFF36F8FBFF34F8FFB602D
:10469000FEE73B695B690F4A934201D1012300E0C9
:1046A0000023002B0FD03B699B6A0B4A93420AD030
:1046B0003B699B6A002B01D1012300E00023002B02
:1046C00001D001237B617B6918461C37BD465DF82C
:1046D000047B7047440500201805002080B584B095
:1046E00000AF78607B68FB607B68002B09D14FF0DE
:1046F000500383F31188BFF36F8FBFF34F8FBB60FD
:10470000FEE7FB68002B39D01E4B1B68FA689A4203
:1047100034D002F0FDF8F868FFF7A6FF0346002B3F
:104720002AD0FB6804331846FEF7F2FAFB68DB6A0E
:1047300001229A40144B1B681343134A1360FB6811
:10474000DA6A13469B0013449B00104A1A44FB6824
:10475000043319461046FEF77EFAFB68DA6A094B05
:104760001B68DB6A9A4207D3094B4FF080521A60EC
:10477000BFF34F8FBFF36F8F02F0F8F800BF103711
:10478000BD4680BD80040020600500208404002018
:1047900004ED00E080B58AB000AF786000237B6252
:1047A0007B683B627B68002B09D14FF0500383F399
:1047B0001188BFF36F8FBFF34F8FBB61FEE702F02D
:1047C0006FF9EFF311824FF0500383F31188BFF3B9
:1047D0006F8FBFF34F8F7A613B617B69FB61386AF2
:1047E000FFF742FF0346002B2FD01D4B1B68002B09
:1047F00025D13B6ADA6A1B4B1B68DB6A9A4201D3FC
:1048000001237B623B6A04331846FEF781FA3B6A58
:10481000DB6A01229A40144B1B681343124A13604F
:104820003B6ADA6A13469B0013449B000F4A1A4402
:104830003B6A043319461046FEF70DFA05E03B6A61
:10484000183319460A48FEF706FAFB69FB60FB6855
:1048500083F311887B6A18462837BD4680BD00BFA8
:1048600080050020800400206005002084040020D2
:104870001805002080B586B002AF1E4B01930023BF
:104880000093002382221C491C48FFF7A7FAF86016
:10489000FB68012B02D101F035FBF860FB68012BAE
:1048A00015D14FF0500383F31188BFF36F8FBFF31F
:1048B0004F8FBB60124B4FF0FF321A60114B012239
:1048C0001A60114B00221A6001F07BFF0DE0FB68BB
:1048D000B3F1FF3F09D14FF0500383F31188BFF3C9
:1048E0006F8FBFF34F8F7B60FEE700BF1037BD4671
:1048F00080BD00BF7C0500200C710008E752000855
:1049000078050020640500205C05002080B582B099
:1049100000AF4FF0500383F31188BFF36F8FBFF3E5
:104920004F8F7B60044B00221A6001F0D7FF00BF5D
:104930000837BD4680BD00BF6405002080B400AFCD
:10494000044B1B680133034A136000BFBD465DF88A
:10495000047B70478005002080B584B000AF002341
:10496000FB600023BB60414B1B68002B09D14FF05B
:10497000500383F31188BFF36F8FBFF34F8F3B60FA
:10498000FEE701F0C5FF394B1B68013B374A136056
:10499000364B1B68002B61D1354B1B68002B5DD05B
:1049A0002EE0344BDB68DB68FB60FB68183318468D
:1049B000FEF7AEF9FB6804331846FEF7A9F9FB6869
:1049C000DB6A01229A402C4B1B6813432A4A13606E
:1049D000FB68DA6A13469B0013449B00274A1A447B
:1049E000FB68043319461046FEF735F9FB68DA6AAE
:1049F000234B1B68DB6A9A4202D3224B01221A60C6
:104A00001C4B1B68002BCCD1FB68002B01D000F0A5
:104A1000DBFD1D4B1B687B607B68002B10D000F01A
:104A200017F90346002B02D0164B01221A607B684F
:104A3000013B7B607B68002BF1D1134B00221A6095
:104A4000104B1B68002B09D00123BB600F4B4FF0AC
:104A500080521A60BFF34F8FBFF36F8F01F086FF54
:104A6000BB6818461037BD4680BD00BF80050020DA
:104A7000580500201805002060050020840400204F
:104A8000800400206C0500206805002004ED00E093
:104A900080B483B000AF054B1B687B607B68184611
:104AA0000C37BD465DF8047B704700BF5C050020F5
:104AB00080B582B000AF01F0F3FF00237B60044BB0
:104AC0001B683B603B6818460837BD4680BD00BF89
:104AD0005C05002080B400AF034B1B681846BD4640
:104AE0005DF8047B704700BF5805002080B485B096
:104AF00000AF78607B68002B02D10D4B1B6800E093
:104B00007B68FB60FB68002B09D14FF0500383F3F7
:104B10001188BFF36F8FBFF34F8FBB60FEE7FB6859
:104B2000343318461437BD465DF8047B704700BF28
:104B30008004002080B586B000AFF860B9607A606C
:104B400000237B6105233B61FFF7F8FE3A4B1B68AE
:104B5000BA689A4268D33B69013B3B617A69134664
:104B6000DB0013449B001A46FB6898183A69134609
:104B70009B0013449B00314A13440122194600F064
:104B8000A5FC02467B6913447B613B69002BE2D1A3
:104B90007A691346DB0013449B001A46FB68981899
:104BA000274B1B680222194600F090FC02467B69E5
:104BB00013447B617A691346DB0013449B001A4659
:104BC000FB6898181F4B1B680222194600F07EFCF8
:104BD00002467B6913447B617A691346DB00134408
:104BE0009B001A46FB68134404221749184600F03C
:104BF0006DFC02467B6913447B617A691346DB00D6
:104C000013449B001A46FB68134403220F491846BD
:104C100000F05CFC02467B6913447B617B68002BDF
:104C200002D07B6800221A60FFF796FE7B69184667
:104C30001837BD4680BD00BF580500208404002001
:104C400010050020140500202C050020440500203C
:104C500080B586B000AF00237B61544B1B68002BEE
:104C600040F09280524B1B6801333B61504A3B69D4
:104C700013603B69002B1FD14E4B1B681B68002B38
:104C800009D04FF0500383F31188BFF36F8FBFF348
:104C90004F8F3B60FEE7474B1B68FB60464B1B6832
:104CA000444A1360444AFB681360444B1B68013359
:104CB000424A136000F088FC414B1B683A699A42F3
:104CC0004DD33C4B1B681B68002B01D1012300E036
:104CD0000023002B04D03A4B4FF0FF321A603EE025
:104CE000344B1B68DB68DB68BB60BB685B687B6060
:104CF0003A697B689A4203D2314A7B6813602EE09E
:104D0000BB6804331846FEF703F8BB689B6A002BA8
:104D100004D0BB6818331846FDF7FAFFBB68DB6A9E
:104D200001229A40274B1B681343264A1360BB6835
:104D3000DA6A13469B0013449B00234A1A44BB685B
:104D4000043319461046FDF786FFBB68DA6A1F4B2D
:104D50001B68DB6A9A42B4D301237B61B1E71B4B2A
:104D60001B68DA6A184913469B0013449B000B44E6
:104D70001B68012B01D901237B61154B1B68002B9C
:104D800009D1FDF765F906E0114B1B680133104AA4
:104D90001360FDF75DF90F4B1B68002B01D0012359
:104DA0007B617B6918461837BD4680BD80050020B1
:104DB0005C0500201005002014050020700500206F
:104DC0007805002060050020840400208004002075
:104DD000680500206C05002080B588B000AF394B15
:104DE0001B68002B03D0384B01221A6065E0364B5C
:104DF00000221A60354B1B681B6BFB614FF0A5331B
:104E0000BB61FB691B68BA699A4211D1FB69043323
:104E10001B68BA699A420BD1FB6908331B68BA69EF
:104E20009A4205D1FB690C331B68BA699A4208D0D3
:104E3000264B1A68254B1B68343319461046FDF77C
:104E40000EF9234B1B68FB60FB68B3FA83F3FB721C
:104E5000FB7AC3F11F037B611E497A6913469B00ED
:104E600013449B000B441B68002B09D14FF05003E7
:104E700083F31188BFF36F8FBFF34F8F7B60FEE723
:104E80007A6913469B0013449B00124A13443B610A
:104E90003B695B685A683B695A603B695A683B6981
:104EA00008339A4204D13B695B685A683B695A608F
:104EB0003B695B68DB68054A136000BF2037BD466D
:104EC00080BD00BF800500206C050020800400200C
:104ED000600500208404002080B584B000AF7860B5
:104EE00039607B68002B09D14FF0500383F31188A0
:104EF000BFF36F8FBFF34F8FFB60FEE7074B1B685D
:104F0000183319467868FDF7CAFE0121386800F0A9
:104F100093FF00BF1037BD4680BD00BF8004002056
:104F200080B586B000AFF860B9607A60FB68002B8E
:104F300009D14FF0500383F31188BFF36F8FBFF394
:104F40004F8F7B61FEE7114B1B68002B09D14FF09F
:104F5000500383F31188BFF36F8FBFF34F8F3B6113
:104F6000FEE70B4B1B68BA6842F000429A61084B9F
:104F70001B6818331946F868FDF76DFE0121786843
:104F800000F05AFF00BF1837BD4680BD80050020E5
:104F90008004002080B586B000AFF860B9607A6008
:104FA000FB68002B09D14FF0500383F31188BFF346
:104FB0006F8FBFF34F8F7B61FEE70A4B1B6818337F
:104FC0001946F868FDF747FE7B68002B02D04FF0CA
:104FD000FF33BB607968B86800F02EFF00BF183758
:104FE000BD4680BD8004002080B586B000AF7860EB
:104FF0007B68DB68DB683B613B69002B09D14FF0C4
:10500000500383F31188BFF36F8FBFF34F8FFB60A3
:10501000FEE73B6918331846FDF77AFE1D4B1B6807
:10502000002B1CD13B6904331846FDF771FE3B6928
:10503000DB6A01229A40184B1B681343164A13601F
:105040003B69DA6A13469B0013449B00134A1A44D7
:105050003B69043319461046FDF7FDFD05E03B6949
:10506000183319460E48FDF7F6FD3B69DA6A0D4B19
:105070001B68DB6A9A4205D901237B610A4B012236
:105080001A6001E000237B617B6918461837BD4632
:1050900080BD00BF80050020600500208404002042
:1050A00018050020800400206C05002080B586B023
:1050B00000AF786039602B4B1B68002B09D14FF093
:1050C000500383F31188BFF36F8FBFF34F8FFB60E3
:1050D000FEE73B6843F000427B681A607B68DB6850
:1050E0003B613B69002B09D14FF0500383F31188DA
:1050F000BFF36F8FBFF34F8FBB60FEE77868FDF79C
:1051000007FE3B6904331846FDF702FE3B69DB6A84
:1051100001229A40144B1B681343134A13603B69E6
:10512000DA6A13469B0013449B00104A1A443B69F9
:10513000043319461046FDF78EFD3B69DA6A0C4BC5
:105140001B68DB6A9A4205D901237B61094B012266
:105150001A6001E000237B617B6918461837BD4661
:1051600080BD00BF80050020600500208404002071
:10517000800400206C05002080B485B000AF78600A
:105180007B68002B09D14FF0500383F31188BFF3E4
:105190006F8FBFF34F8FFB60FEE7074B1A687B688A
:1051A0001A60064B1A687B685A6000BF1437BD4608
:1051B0005DF8047B704700BF700500205C0500208F
:1051C00080B586B000AF786039607B68002B09D16C
:1051D0004FF0500383F31188BFF36F8FBFF34F8FEE
:1051E000FB60FEE73B68002B09D14FF0500383F3CF
:1051F0001188BFF36F8FBFF34F8FBB60FEE701F0E5
:1052000087FB1C4B1B683B613B681B68B3F1FF3F8E
:1052100002D100237B6126E07B681A68164B1B686D
:105220009A4207D07B685B683A699A4202D30123AD
:105230007B6118E07B685B683A69D21A3B681B683F
:105240009A420ED23B681A687B6859683B69CB1A50
:105250001A443B681A607868FFF78EFF00237B6171
:1052600001E001237B6101F081FB7B69184618375F
:10527000BD4680BD5C0500207005002080B400AFF5
:10528000034B01221A6000BFBD465DF8047B7047E6
:105290006C05002080B485B000AF78607B68002B7F
:1052A00005D07B68BB60BB685B6CFB6001E00023E2
:1052B000FB60FB6818461437BD465DF8047B7047F9
:1052C00080B485B000AF786039607B68002B04D073
:1052D0007B68FB60FB683A685A6400BF1437BD46C0
:1052E0005DF8047B704780B582B000AF786000F055
:1052F00053F8074B1B68012B07D9064B4FF0805220
:105300001A60BFF34F8FBFF36F8FFCF7AFFEEEE76E
:105310008404002004ED00E080B582B000AF0023DB
:105320007B600CE07A6813469B0013449B00124A92
:1053300013441846FDF762FC7B6801337B607B6891
:10534000042BEFD90D48FDF759FC0D48FDF756FC2D
:105350000C48FDF753FC0C48FDF750FC0B48FDF7DB
:105360004DFC0B4B054A1A600A4B054A1A6000BFF8
:105370000837BD4680BD00BF84040020E80400203B
:10538000FC040020180500202C0500204405002006
:10539000100500201405002080B582B000AF28E081
:1053A000FFF7CCFA174B1B68002B0CBF012300231F
:1053B000DBB27B60FFF7D0FA7B68002B19D101F0DC
:1053C000A7FA104BDB68DB683B603B680433184688
:1053D000FDF79EFC0C4B1B68013B0B4A13600B4B0B
:1053E0001B68013B094A136001F0C0FA386800F0FD
:1053F000DBF8064B1B68002BD2D100BF0837BD4637
:1054000080BD00BF2C05002058050020400500206D
:1054100080B586B000AFF860B9607A60FB70FB6859
:10542000002B02D1284B1B6800E0FB687B61BB6846
:105430007A691A607B6903F13402BB685A607B6940
:10544000DA6ABB681A617B691A6BBB68DA617B69CF
:105450001A6CBB689A60BB681B7B032B0AD1FFF7F1
:105460006DFA7B699B6A002B02D0BB6802221A731B
:10547000FFF772FA7B699A6CBB685A61BB680022BD
:105480009A61FB78052B03D0BB68FA781A7306E0A3
:10549000F868FEF715FF03461A46BB681A737B6867
:1054A000002B09D07B691B6B184600F061F803469E
:1054B0001A46BB681A8402E0BB6800221A8400BF47
:1054C0001837BD4680BD00BF8004002080B58AB07B
:1054D00000AFF860B9601346FB7100237B62BB68C4
:1054E0001B68002B3FD0BB683B623B6A5B685A6815
:1054F0003B6A5A603B6A5A683B6A08339A4204D155
:105500003B6A5B685A683B6A5A603B6A5B68DB6867
:10551000FB61BB68BB61BB695B685A68BB695A6069
:10552000BB695A68BB6908339A4204D1BB695B689E
:105530005A68BB695A60BB695B68DB687B617A6AE1
:105540001346DB0013449B001A46FB689918FB794D
:1055500001227869FFF75CFF7B6A01337B627A691D
:10556000FB699A42D5D17B6A18462837BD4680BD73
:1055700080B485B000AF78600023FB6005E07B68F5
:1055800001337B60FB680133FB607B681B78A52BD4
:10559000F5D0FB689B08FB60FB689BB2184614378C
:1055A000BD465DF8047B704780B582B000AF78607F
:1055B0007B681B6B184601F001FB786801F0FEFA6E
:1055C00000BF0837BD4680BD80B483B000AF0F4B2D
:1055D0001B681B68002B01D1012300E00023002B76
:1055E00004D00B4B4FF0FF321A6008E0074B1B68EA
:1055F000DB68DB687B607B685B68054A136000BF23
:105600000C37BD465DF8047B704700BF10050020D5
:105610007805002080B483B000AF054B1B687B6029
:105620007B6818460C37BD465DF8047B704700BFA9
:105630008004002080B483B000AF0B4B1B68002BAC
:1056400002D101237B6008E0084B1B68002B02D1CC
:1056500002237B6001E000237B607B6818460C37E7
:10566000BD465DF8047B704764050020800500207E
:1056700080B584B000AF78607B68FB607B68002BEE
:1056800062D0FB68DA6A324B1B68DB6A9A425BD2F3
:10569000FB689B69002B06DB2D4B1B68DB6AC3F1A3
:1056A0000502FB689A61FB685969FB68DA6A134670
:1056B0009B0013449B00274A1344994201D10123C4
:1056C00000E00023002B3AD0FB6804331846FDF7B6
:1056D0001FFB0346002B15D1FB68DA6A1D491346F0
:1056E0009B0013449B000B441B68002B0AD1FB68F2
:1056F000DB6A012202FA03F3DA43174B1B681340FB
:10570000154A1360124B1B68DA6AFB68DA62FB68A1
:10571000DB6A01229A40104B1B6813430E4A136048
:10572000FB68DA6A13469B0013449B00094A1A443B
:10573000FB68043319461046FDF78DFA04E0044B6C
:105740001B68DA6AFB68DA6200BF1037BD4680BDAD
:1057500080040020840400206005002080B586B00D
:1057600000AF78607B683B6100237B617B68002B26
:105770006CD0394B1B683A699A4209D04FF05003FC
:1057800083F31188BFF36F8FBFF34F8FFB60FEE78A
:105790003B69DB6C002B09D14FF0500383F3118878
:1057A000BFF36F8FBFF34F8FBB60FEE73B69DB6CCE
:1057B0005A1E3B69DA643B69DA6A3B699B6C9A4220
:1057C00044D03B69DB6C002B40D13B690433184665
:1057D000FDF79EFA0346002B15D13B69DA6A1F4993
:1057E00013469B0013449B000B441B68002B0AD1FB
:1057F0003B69DB6A012202FA03F3DA43184B1B68A8
:105800001340174A13603B699A6C3B69DA623B6943
:10581000DB6AC3F105023B699A613B69DB6A0122DD
:105820009A400F4B1B6813430D4A13603B69DA6AB9
:1058300013469B0013449B00084A1A443B690433F7
:1058400019461046FDF707FA01237B617B6918466C
:105850001837BD4680BD00BF8004002084040020AE
:105860006005002080B483B000AF094B1B689B69C2
:105870007B60074B1B68DA6A054B1B68C2F10502A7
:105880009A617B6818460C37BD465DF8047B70470B
:105890008004002080B400AF074B1B68002B04D0AD
:1058A000054B1B68DA6C0132DA64034B1B6818463F
:1058B000BD465DF8047B70478004002080B584B04D
:1058C00000AF7860396001F023F81E4B1B681B6D38
:1058D000002B13D11B4B1B68012283F854203B681B
:1058E000002B0BD00121386800F0A6FA164B4FF0C0
:1058F00080521A60BFF34F8FBFF36F8F01F036F8FD
:1059000001F006F80F4B1B681B6DFB60FB68002B5A
:105910000CD07B68002B04D00A4B1B6800221A6550
:1059200004E0084B1B68FA68013A1A65054B1B68CE
:10593000002283F8542001F019F8FB68184610374C
:10594000BD4680BD8004002004ED00E080B586B037
:1059500000AFF860B9607A603B6000F0D9FF264B79
:105960001B6893F85430DBB2022B1AD0224B1B6811
:10597000196DFA68D2430A401A651F4B1B68012251
:1059800083F854203B68002B0BD00121386800F0CD
:1059900053FA1A4B4FF080521A60BFF34F8FBFF388
:1059A0006F8F00F0E3FF00F0B3FF7B68002B04D0A3
:1059B000114B1B681A6D7B681A600F4B1B6893F8BC
:1059C0005430DBB2012B02D100237B6108E00A4B8B
:1059D0001B68196DBA68D2430A401A6501237B61BE
:1059E000054B1B68002283F8542000F0BFFF7B6941
:1059F00018461837BD4680BD8004002004ED00E045
:105A000080B58AB000AFF860B9603B601346FB71A7
:105A100001237B62FB68002B09D14FF0500383F315
:105A20001188BFF36F8FBFF34F8FBB61FEE7FB6839
:105A30003B6200F06DFF3B68002B03D03B6A1A6DA0
:105A40003B681A603B6A93F85430FB773B6A02224A
:105A500083F85420FB79042B27D801A252F823F0B5
:105A6000AB5A0008755A0008835A00088F5A00087C
:105A7000975A00083B6A1A6DBB681A433B6A1A655D
:105A800013E03B6A1B6D5A1C3B6A1A650DE03B6ACA
:105A9000BA681A6509E0FB7F022B03D03B6ABA683B
:105AA0001A6501E000237B6200BFFB7F012B38D128
:105AB0003B6A04331846FDF72BF93B6ADB6A012287
:105AC0009A401B4B1B681343194A13603B6ADA6AFE
:105AD00013469B0013449B00164A1A443B6A043346
